:020000040000FA
:060000000A128A110C280F
:10000800FE00030EFA000A08FB000A128A11A6284D
:100018000A128A110F28F001F101F201F301F4012B
:10002800F501F601F70183120313A001A101A20152
:10003800A301A401A50183010A128A1123288316AA
:100048000313860106308700C0308B00073081001B
:1000580031308312031390000530970005309D005E
:100068008101F401F5018B16831603130C150D1489
:10007800083083120313A6005230A700FF30A800EF
:10008800FF30A9000610F001F1017008710403198E
:100098006D28861C5128061D8C28061021308312D5
:1000A8000313AB007530AA00AA0B5828AB0B5828CD
:1000B8005D2883120313861406112130831203135B
:1000C800AB007530AA00AA0B6728AB0B67286C2811
:1000D8008C288618712806198C280610213083125E
:1000E8000313AB007530AA00AA0B7828AB0B78284D
:1000F8007D288312031386100615213083120313FB
:10010800AB007530AA00AA0B8728AB0B87288C2870
:100118008312031327087302031D9428260872020A
:1001280003189A282708F3002608F2007308290202
:10013800031DA028720828020318A42806104928BD
:1001480006144928831203130C1DC1280C11F4014D
:10015800F5012108A3002008A20076081502F8007E
:100168007708031C770A1602F9007808A8007908AE
:10017800A9001608F7001508F6000D1CCF280D1069
:100188001D1CCC280130A0000030A1001D10CF2874
:10019800A001A1011D140B1DE3280B110130F40768
:1001A8000318F50A0030F507263074067504031D98
:1001B800E328FF30A800FF30A900F401F5017B080F
:0C01C8008A007A0E8300FE0E7E0E0900F5
:02400E007A3FF7
:00000001FF
